:020000040800F2
:100000006031002099010008AF3800083B3100083A
:10001000AD3800085D0A0008F74D00080000000038
:1000200000000000000000000000000001010008C6
:10003000230C00080000000045010008DD4700080F
:10004000B3010008B3010008B3010008B3010008C0
:10005000B3010008B3010008B3010008B3010008B0
:10006000B3010008B3010008B3010008B3010008A0
:10007000C90B0008D50B0008E10B0008ED0B0008C8
:10008000B3010008B3010008B3010008B301000880
:10009000B3010008B3010008B3010008B301000870
:1000A000B30100088D480008B3010008B30100083F
:1000B000B3010008B301000899480008B301000823
:1000C000B3010008B3010008B3010008B301000840
:1000D000B3010008194D0008B3010008254D0008C0
:1000E000B3010008B3010008B3010008DFF80CD029
:1000F00000F08AFB00480047196C000860310020BE
:10010000224B19680868B0E8F00F80F30988BFF344
:100110006F8F4FF0000080F311884EF00D0E704786
:100120000000000006480068006880F3088862B696
:1001300061B6BFF34F8FBFF36F8F00DF00BF00BF0B
:1001400008ED00E0EFF30980BFF36F8F0F4B1A68E3
:1001500020E9F00F106008B54FF0500080F31188CF
:10016000BFF34F8FBFF36F8F08F076F94FF00000A9
:1001700080F31188BDE8084019680868B0E8F00FFE
:1001800080F30988BFF36F8F704700BFD000002055
:10019000EFF3058070470000064880470648004797
:1001A000FEE7FEE7FEE7FEE7FEE7FEE7FEE7FEE727
:1001B000FEE7FEE789480008ED000008202A04DB7E
:1001C000203A21FA02F00021704721FA02F3D040D0
:1001D000C2F12002914008431946704740EA0103EA
:1001E0009B0703D009E008C9121F08C0042AFAD2ED
:1001F00003E011F8013B00F8013B521EF9D27047B1
:10020000D2B201E000F8012B491EFBD27047002258
:10021000F6E710B513460A4604461946FFF7F0FF05
:10022000204610BD421E12F8013F002BFBD111F8F1
:10023000013B02F8013B002BF9D1704730B5054670
:100240002A460B4612F8010B13F8014B08B1A042E5
:10025000F8D01CB1002802D06D1CF1E7284630BD53
:10026000421C10F8011B0029FBD1801A704703467D
:1002700011F8012B00F8012B002AF9D1184670471C
:1002800070B50F4D00B92868002412E00A4602E05C
:100290009E4203D0521C1378002BF9D1DAB22243CC
:1002A00005D02BB124B1002100F8011B04E0044665
:1002B000401C0678002EE9D12860204670BD000061
:1002C0003001002070B5064604F0CCFD04680546F8
:1002D0000A220021304600F0B8F82C6070BD2DE9EC
:1002E000F04D81EA030404F0004B21F00045144670
:1002F0004FF0000A23F0004150EA050220D054EAF2
:1003000001021DD0C5F30A570246C5F31303C1F31A
:100310001300C1F30A5640F4801543F48013A7EB91
:100320000608101BD64608F2FD3873EB050002D311
:1003300008F1010801E092185B41B8F1000F03DAFF
:1003400000200146BDE8F08D00204FF480110646E4
:1003500084460EE0171B73EB050705D3121B63EBF6
:10036000050306434CEA010C49084FEA3000921895
:100370005B4150EA0107EDD152EA030012D082EA54
:10038000040083EA0501084305D0101BAB4106D2E7
:100390000122002306E000224FF0004302E06FF04C
:1003A000010253101AEB06004CEB085110EB0A0047
:1003B00041EB0B01BDE8F04D00F07FB830B50B46C6
:1003C000014600202022012409E021FA02F59D4285
:1003D00005D303FA02F5491B04FA02F52844151E59
:1003E000A2F10102F1DC30BD2DE9F05F05460020ED
:1003F00092469B4688460646814640241BE0284696
:10040000414647462246FFF7D9FE53465A46C01A90
:10041000914110D311461846224600F007FA2D1AD2
:1004200067EB01084F4622460120002100F0FEF94B
:1004300017EB00094E41201EA4F10104DFDC484601
:1004400031462A464346BDE8F09F2DE9F0479146E4
:100450000F4680460446002614F8015B2DB100F0DB
:1004600007FA0068405DC007F6D12B2D02D02D2D74
:1004700018D0641E4A463946204600F0FDF927B1DF
:100480003968A14201D1C7F8008071054FF002041C
:100490000BD54042002803DD04F0E4FC0460A00713
:1004A000BDE8F08746F48066E4E70028F8DA04F057
:1004B000D9FC04606FF00040F2E710B5141E73F130
:1004C000000408DA401C41F1000192185B411A4314
:1004D00001D120F0010010BD2DE9F04D92469B4660
:1004E00011B1B1FA81F202E0B0FA80F22032904606
:1004F00000F09CF904460F4640EA0A0041EA0B016D
:1005000053465A46084313D0114653EA010019D006
:10051000C8F140025046FFF751FE05460E465046D0
:100520005946424600F082F9084305D0012004E014
:1005300020463946BDE8F08D0020054346EAE076C6
:100540002C4337430A986305E40AA0EB0800002215
:10055000FD0A44EA47540A3002D500200146E9E783
:10056000010510196941DDE9084500196941BDE837
:10057000F04DA2E72DE9FE4F804681EA0300C00F4F
:100580000C46009021F0004123F00045B8EB02003A
:10059000A94105D24046214690461C460B460246DC
:1005A00023F00040104347D0270DC7F30A00C3F3E0
:1005B0000A510290401A019040286BDAC3F31300ED
:1005C00040F4801B0098924620B10023D2EB030A2E
:1005D00063EB0B0B01985946C0F14002504600F006
:1005E00025F906460D4650465946019A00F02DF968
:1005F00010EB08006141002487EA115284EAE77396
:100600001A4340D0009A62B3019A012A4FEA075276
:1006100015DC001B61EB02014FF0004202EA0752B9
:10062000CDE90042001C41F5801132462B46FFF710
:1006300053FF03B0BDE8F08F40462146F9E7001BA9
:1006400061EB0201001C41F5801300185B4120188A
:10065000A2F5001747EB030140EAD570B6196D41CA
:1006600011E06D084FEA360645EAC0754FEA0752B9
:10067000001B61EB0201001C41F5801149084FEAA3
:1006800030000019514132462B4603B0BDE8F04F0F
:10069000FFF713BF0098012240000023D0EB0202B5
:1006A00063EBE073009821464FEAE074B8EB00007A
:1006B00061EB0401E9E783F000435BE781F000416F
:1006C00058E72DE9FE4F81EA030404F0004421F0CD
:1006D000004100944FF0000B23F0004350EA010466
:1006E0005ED052EA03045BD0C3F30A54C1F30A5547
:1006F0002C44A4F2F3340194A0FB0254C1F313017F
:1007000041F48011C3F3130343F4801301FB02444B
:1007100000FB034E840A970A44EA815447EA835750
:10072000A4FB076802958D0A05FB07854FEA932C09
:1007300004FB0C542705029D4FEA065847EA16377A
:10074000B5EB08056EEB070C870E920E47EA811792
:1007500042EA8312A7FB0201B6EB0B0164EB000433
:100760002B0D43EA0C335E1844EB1C50DA4651461D
:10077000E7FB0201C5F313044FEA0B3343EA1453BA
:100780004FEA0432019C43EA0603A4F10C040294EC
:10079000009CCDE900B4FFF79FFE03B0BDE8F08FE9
:1007A00000200146F9E7C1F30A52C1F3130140F2F8
:1007B000FF3341F480119A4202DA0020014670476B
:1007C00040F233439A42A2F2334202DC5242FFF734
:1007D000F5BC00F02BB8000030B5041E71F1000428
:1007E00004DB4FF00044404264EB0101141E73F13E
:1007F000000405DB1C464FF00043524263EB040348
:10080000994208BF904230BD064C074D06E0E068B3
:1008100040F0010394E8070098471034AC42F6D347
:10082000FFF768FC2098000840980008202A04DBA5
:10083000203A00FA02F1002070479140C2F12003F3
:1008400020FA03F3194390407047202A06DBCB17A8
:10085000203A41FA02F043EAE07306E041FA02F37B
:10086000D040C2F120029140084319467047000071
:1008700000487047249700082DE9F05F8246007811
:10088000002715468B460AF10104B946302801D0ED
:100890009DB113E014F8010B0127782803D05828E4
:1008A00001D045B10AE00DB1102D07D10027102568
:1008B00014F8010B02E0082500E00A250026B046E6
:1008C0000EE005FB080005FB06F1012701EB1046D1
:1008D0001FFA80F8B6F5803F00D3B94614F8010B33
:1008E000294600F018F80028EBDABBF1000F05D01C
:1008F0000FB1641E00E05446CBF80040B9F1000F80
:1009000006D004F0AFFA02210160C81EBDE8F09FD6
:1009100048EA0640FAE73A2800D2303820F02002B0
:10092000412A01D3A2F13700884201D34FF0FF30B2
:10093000704770B58C1810F8015B15F0070301D1F2
:1009400010F8013B2A1106D110F8012B03E010F832
:10095000016B01F8016B5B1EF9D12B0705D4002355
:10096000521E0DD401F8013BFAE710F8013BCB1AF7
:10097000921C03E013F8015B01F8015B521EF9D5EC
:10098000A142D8D3002070BD70B5044600688168CC
:10099000C943C90717D1816821F00101816000F0C6
:1009A0002FFE05460AE000BF00F02AFE401B022889
:1009B00004D920688068C043C00706D020688068DA
:1009C000C043C007F0D0002070BDA06A40F0100006
:1009D000A062E06A40F00100E062012070BD00000A
:1009E000F8B500260446009600688168C943C90727
:1009F0002DD0816841F001018160164816490068D8
:100A0000B0FBF1F000E0401E00900028FBD100F0A8
:100A1000F7FD054616E000BF00F0F2FD401B02287E
:100A200010D920688068C043C0070BD0A06A40F08E
:100A30001000A062E06A40F00100E06284F82460E7
:100A40000120F8BD20688068C043C007E4D10020C1
:100A5000F8BD0000C400002040420F00FEE7000087
:100A600030B516480024016821F00F0101600168CB
:100A700041F008010160124D04E0641CE4B2012061
:100A800005F006F8D5F8000110B1642CF5D30DE09F
:100A9000642C0BD2002404E0641CE4B2012004F0B6
:100AA000F7FFD5F8000118B1642C04D3012030BD44
:100AB000642CF1D3FAE7002030BD0000000C0140A7
:100AC0000080214210B500F061F8BDE81040FFF74A
:100AD000C7BF000030B50024104D04E0641CE4B230
:100AE000012004F0D5FFD5F8000108B1642CF5D33E
:100AF000002404E0641CE4B2012004F0C9FFD5F82E
:100B0000000108B9642CF5D3282004F0C1FFD5F802
:100B10000001002800D0012030BD000000802142EB
:100B200030B5002004464006050EFFF7D3FF641CD5
:100B30002843E4B2082CF6D330BD2DE9FC410D4624
:100B4000064600F023F8FFF78BFF10B10120BDE847
:100B5000FC8100246F46FFF7E3FF3855641CE4B2C4
:100B6000052CF8D39DF800109DF801009DF8033086
:100B70000A189DF8020003441A449DF804309A4272
:100B800001D1297030700020E1E700000C4810B559
:100B9000016821F00F010160016841F0030101606B
:100BA000084C0020C4F88001142004F5C07400F043
:100BB0001BFC01202060BDE810401E2004F068BF2F
:100BC000000C014000802142014800F0FDBA000005
:100BD000E4190020014800F0F7BA0000A019002035
:100BE000014800F0F1BA00005C190020014800F053
:100BF000EBBA00001819002030B590F840500124DD
:100C0000AC40C56B6C60046863604368102B03687C
:100C100003D099600068C26030BD9A600068C1600E
:100C200030BD704772B6FEE7002200F001B8000048
:100C300030B50E4B054601205C7A012C15D8587A48
:100C400000241C54587A03EB800045605D7A03F160
:100C500008002A54587A421C5A72303008703A20E0
:100C600048702F208870CC70002030BD24200020D8
:100C7000F8B50024009490F824202546012A12D0CB
:100C8000012280F824204A681F23072A0DD2066813
:100C9000776B521E02EB820293409F430B68934096
:100CA0001F43776319E00220F8BD06680D2A0AD2B7
:100CB000376BD21F02EB820293409F430B68934035
:100CC0001F43376309E0F76A0D3A02EB8202934053
:100CD0009F430B6893401F43F7620A680723066827
:100CE0000A2A0AD3F7680A3A02EB420293409F436A
:100CF0008B6893401F43F76008E0376902EB4202BC
:100D000093409F438B6893401F4337610A68102AC2
:100D100001D0112A20D1124B02689A4217D1936850
:100D20001B0219D4936843F40003936009681029E7
:100D300012D10C490C4A0968B1FBF2F101EB8101B7
:100D4000490000E0491E00910029FBD104E0816ABE
:100D500041F020018162012480F824502046F8BD32
:100D600000240140C400002040420F00806A704708
:100D70000068C06C704700002DE9F0414FF000079B
:100D800004003D467ED0A06A002628B9E66284F8B9
:100D90002460204600F07EF82046FFF7F5FDA16AAA
:100DA000C90600D420B1A06A40F01000A06269E03A
:100DB000A16A21F4885141F00201A1626268E169EF
:100DC000237B0A4347EA43010A43A1684FF4807733
:100DD000B94209D0012907D05FF0000194F814C08E
:100DE000BCF1010F02D00AE03946F7E7F3B1A36A7C
:100DF00043F02003A362E36A43F00103E362236844
:100E0000D3F804C02CF4694C4CEA010CC3F804C0BC
:100E100021688B68DFF870C003EA0C0313438B6012
:100E2000A168B9420BD0012909D00CE0DFF85CC001
:100E3000A3690CEB43330B4343F40061DFE7218AE2
:100E40000D05A5F580152168CB6A23F470032B43AB
:100E5000CB62216889680E4B1940914208D1E66245
:100E6000A16A21F0020141F00101A162BDE8F08117
:100E7000A06A20F0020040F01000A062E06A40F09A
:100E80000100E0620120F1E7FDF7E1FF00E0FFFF74
:100E9000FE0E1FFF00B585B0002100910191029167
:100EA000039100680E49884218D10E48816941F4C7
:100EB00080618161816901F480610491816941F0FF
:100EC000040181618069694600F0040004901020EB
:100ED000009003200190044800F098FA05B000BD8E
:100EE0000028014000100240000801402DE9F843AD
:100EF00000270D460446009700F082FB80462068DC
:100F00008168C90508D5A06A40F02000A06284F875
:100F100024700120BDE8F8834168C90503D4C06A84
:100F200010F4700F2AD0022000F0E6FD3B4909685A
:100F3000B1FBF0F62068036939490B424FEA6101C1
:100F40004FEAA1121FD1C3684FEA611C13EA0C0FCC
:100F500019D103690B4225D1C068104222D1142057
:100F600023E0681C0AD02DB100F04AFBA0EB08007A
:100F7000A84203D920680068800725D5206800684A
:100F80008007EED52DE003690B4202D1C168114202
:100F900006D0026923490A4206D1C068084203D13B
:100FA000542002E0292000E0FC204643009816E08F
:100FB000681C11D02DB100F023FBA0EB0800A84263
:100FC0000AD90098B04207D2A06A40F00400A0629B
:100FD00084F8247003209DE70098401C0090B042E4
:100FE000E6D321686FF012000860A06A40F4007038
:100FF000A06220688068C0F3424007280CD1207BA3
:1010000050B9A06A20F48070A062A06AC00403D422
:10101000A06A40F00100A06200207BE7C40000202D
:10102000244992244992240070B5044690F8240083
:1010300001280DD0012084F824002046FFF7D0FCC1
:1010400002004FF0000005D084F82400104670BD67
:10105000022070BDA16A40F20123994341F48071DE
:10106000A1621F4D23681F49AB4218D10E6816F4C8
:10107000702F14D0A66A46F48016A6620E68760514
:1010800005D5A66A26F4005646F48056A662A66ADE
:10109000F6040AD5E66A26F00606E66206E0A66AC7
:1010A00026F48016A6625E68E9E7E06284F8240010
:1010B0006FF00200186020688368C3F34243072B77
:1010C00005D1A84208D1096811F4702F04D08168B5
:1010D00041F480118160B9E7816841F4A001F9E72A
:1010E000002801400424014010B590F8211000228E
:1010F000022905D00421816380F82020012010BD41
:1011000001680B6823F00E030B6001680B6823F085
:1011100001030B6090F84030C46B012101FA03F326
:10112000636080F8211080F82020104610BD000078
:1011300010B590F821100024022903D00421816306
:1011400001243DE001680A6822F00E020A6001688D
:101150000A6822F001020A601A4A0168914201D12C
:10116000012121E0174A1432914201D110211BE0E4
:10117000144A2832914201D1891515E0114A3C32B6
:10118000914201D189140FE00E4A5032914202D1AE
:101190004FF4803108E00B4A6432914202D14FF49F
:1011A000801101E04FF08071064A083A5160012138
:1011B00080F82110002180F82010416B01B1884790
:1011C000204610BD080002402DE9F05FC16B0C689D
:1011D00001680B68D0F840C0042202FA0CF2494DB5
:1011E000DFF824A1494E4A4FDFF828B1DFF828E1A3
:1011F00022422CD05A072AD50A68920603D40A68DC
:1012000022F004020A600168A94201D1042219E017
:10121000514501D1402215E0B14202D14FF4806224
:1012200010E0B94202D14FF480420BE0594502D19F
:101230004FF4802206E0714502D14FF4800201E0B4
:101240004FF080622F4908394A60C16A3BE04FF095
:10125000020808FA0CF818EA040F4FF000094FF0E2
:10126000010235D05FEA837832D50B689B0605D43E
:101270000B6823F00A030B6080F821200168A94263
:1012800001D1022219E0514501D1202215E0B142DD
:1012900002D14FF4007210E0B94202D14FF4005273
:1012A0000BE0594502D14FF4003206E0714502D1FE
:1012B0004FF4001201E04FF00072124908394A6001
:1012C00080F82090816A00291AD0BDE8F05F0847B5
:1012D000082505FA0CF5254212D01B0710D50B681E
:1012E00023F00E030B6090F84010C36B02FA01F17B
:1012F0005960826380F8212080F82090016BE2E73A
:10130000BDE8F09F080002401C000240300002408F
:1013100044000240580002406C00024030B528B33F
:1013200008C8134914221944B1FBF2F18900C163C2
:1013300010498163022141771A6843F6F0718A43AC
:10134000D0E900142143D0E902452C43214304692C
:1013500021434469214384692143114319600021D9
:101360004163012242770177084630BD012030BD3C
:10137000F8FFFDBF0000024070B5044690F8200061
:10138000002501280CD0012084F8200094F8216069
:101390000020012E06D084F820000225284670BDCA
:1013A000022070BD022684F82160A06320680668D0
:1013B00026F0010606602046FFF71EFCE06A0028C2
:1013C0002068016802D041F00E0106E021F004011E
:1013D00001602068016841F00A010160206801682D
:1013E00041F001010160D9E770B5044600F008F949
:1013F0000546601C02D004480078044400F000F95F
:10140000401BA042FAD370BDB80000202DE9F84F70
:10141000DFF8B891002409F1040A0AF1040B23460D
:101420000F270BF1040EC9E00125A5402A40AA426E
:101430007DD1674ED1F804C0ACEB0608B44532D07C
:1014400014DCBCF1030F3AD009DCBCF1000F2AD048
:10145000BCF1010F1CD0BCF1020F31D11DE0BCF179
:10146000110F17D0BCF1120F2AD119E0B8F5881F5F
:1014700019D006DCB8F5803F15D0B8F5801F1FD114
:1014800011E0B8F5001F0ED0B8F5041F18D10AE01E
:10149000CB6815E0CB681B1D12E0CB6808330FE06A
:1014A000CB680C330CE08B682BB1012B4FF0080399
:1014B00003D0456104E0042302E0056100E000235D
:1014C000FF2A01D8064601E000F104064FEA840530
:1014D00001D9A5F12005D6F8008007FA05FC28EA15
:1014E0000C0803FA05F548EA0508C6F800804D68BF
:1014F000ED0062D5374DAE6946F00106AE61AD69CB
:1015000024F0030605F001050095334D06EB050CAC
:10151000DCF80850A607360F07FA06F825EA080592
:10152000DFF8B880404503D14FF0000817E044E0F1
:10153000DFF8AC80404502D14FF001080FE0DFF842
:10154000A480404502D14FF0020808E0DFF89880FF
:10155000404502D14FF0030801E04FF0040808FABB
:1015600006F848EA0508CCF808804D68D9F800600C
:10157000ED034D4601D5164300E096432E604D68BD
:10158000DAF80060AD03554601D5164300E09643F6
:101590002E604D68DBF80060ED025D4601D5164314
:1015A00000E096432E604D68DEF80060AD0275469F
:1015B00001D5164300E096432E60641C0D682A4650
:1015C000E5407FF431AFBDE8F88F00000004014032
:1015D000000011100010024000000140000801400E
:1015E000000C0140001001400014014080680840D8
:1015F00000D0012070470AB1016170470904FBE780
:101600000148806870470000B800002070B50400F1
:1016100025D094F83D00002520B984F83C502046A0
:1016200000F050F9242084F83D002068016821F082
:10163000010101602068016841F4004101602068F7
:10164000016821F40041016000F0E6FB4D4A616849
:10165000914201D84C4900E04C49884201D2012016
:1016600070BD4B492368B0FBF1F15E6826F03F0680
:101670000E435E606368934206D94FF496735943F4
:101680004FF47A73B1FBF3F12368491C1E6A26F00C
:101690003F06314319626168914210D84900401EEB
:1016A000B0FBF1F2521CC2F30B02042A01D2042057
:1016B00022E0B0FBF1F0401CC0F30B001CE0A2687C
:1016C000F2B301EBC10303EB0116431EB3FBF6F3C8
:1016D0005B1C43F480431B0549D092B301EBC1026C
:1016E00002EB0111401EB0FBF1F0401CC0F30B00F7
:1016F00040F4804040F400402168CA694CF6FF7312
:101700009A431043C861D4E9071001432068026876
:1017100022F0C00211430160D4E9030101432068B3
:10172000826848F2FF339A4311438160D4E905018E
:1017300008432168CA6822F0FF021043C86001E034
:101740000EE016E02068016841F0010101602564A7
:10175000202084F83D00256384F83E50002070BDB1
:1017600001EB4106431EB3FBF6F35B1CB3E701201C
:10177000C2E701EB4101401EB0FBF1F0401CC0F399
:101780000B00B7E7A086010080841E0000093D0021
:1017900040420F002DE9FF4F83B09A46DDE91197D3
:1017A00093460446DDF84080FFF72AFF054694F88B
:1017B0003D0020287FD11923012240492046009571
:1017C00001F04EFD002876D194F83C00012872D03B
:1017D000012084F83C0020680168C90703D1016832
:1017E00041F0010101602068016821F4006101609D
:1017F000212084F83D00402084F83E000026266425
:10180000C4F82480A4F82A90608D20852C48E062DA
:10181000CDE9007553465A462046049901F0A6FCCE
:1018200070B930E02A463946204601F098FD58B19B
:10183000206C042804D12068016841F40071016023
:10184000012007B0BDE8F08F606A21680078086168
:10185000606A401C6062218D491E89B22185628DBB
:10186000521E628522685369DB435B070BD469B162
:1018700000781061606A401C6062208D401E2085E7
:10188000608D401E6085208D0028CBD12A463946C8
:10189000204601F0BFFC0028CAD154F83D0B016876
:1018A00041F400710160202004F81E09E677667794
:1018B0000020C6E7FFE70220C3E700000200100097
:1018C0000000FFFF10B586B0002100910191029148
:1018D000039100680F4988421AD10F4CA06940F06B
:1018E0000800A061A069694600F008000490C020CB
:1018F000009012200190032003900848FFF786FD16
:10190000E06940F40010E061E06900F40010049028
:1019100006B010BD0054004000100240000C014011
:1019200070B5040011D021684CF6CC4008602168E5
:1019300045F255500860D4E9000141602168A06873
:101940008860FFF75DFE05460DE0012070BD00BF19
:10195000FFF756FE401B272805D92068C06880077E
:1019600001D0032070BD2068C0688007F0D12168D5
:101970004AF6AA200860002070BD00684AF6AA2135
:10198000016000207047000002488168027811441D
:1019900081607047B8000020074810B5016841F029
:1019A00010010160032000F095F8002000F006F817
:1019B00000F03EF8002010BD0020024000B50146B6
:1019C00087B000221E2000F065F81E2000F054F8B9
:1019D0001348C16941F00401C161C06905A900F063
:1019E00004000690684600F0F7F900F015FA0D497A
:1019F0004000B0FBF1F10D480B4A491E0260416006
:101A000040F2E7320021C0E90321816000F0A4FD2B
:101A100010B1012007B000BD044800F0E9FDF9E76E
:101A20000010024040420F0000080040F01A002061
:101A30000F4808B5816941F001018161816901F0B8
:101A400001010091C16941F08051C161C06900226A
:101A500000F0805000900F21901E00F01BF8054808
:101A6000416821F0E06141F00071416008BD000073
:101A70000010024000000140002809DB00F01F02B6
:101A8000012191404009800000F1E020C0F80011E0
:101A900070470000F0B40E4B1B680C46C3F30223E2
:101AA000C3F10705042D00D90425191D072901D20A
:101AB000002300E0DB1E012606FA05F1491E214045
:101AC00099409E40761E16403143F0BC03F0BAB9EF
:101AD0000CED00E0064900F0070208684FF6FF032E
:101AE000184040EA0220034A104308607047000093
:101AF0000CED00E00000FA0510B529A401461DCC4C
:101B000086B08DE81D002AA02A4C006804900020B1
:101B1000012923D002293AD010291DD161682268F9
:101B2000D20119D5C1F38342C9031DF8020009D5BA
:101B3000616804AAC1F34041515C1F4AB2FBF1F154
:101B4000484301E01D4948436168490204D440000C
:101B50005FF00301B0FBF1F006B010BD226AC2F3E2
:101B60000121012903D1920701D5C803F4E7022915
:101B700005D1626A920702D549F64040ECE7032995
:101B8000EAD121688903E7D54FF22440E4E700F069
:101B900053F96168C1F38131491C4900DAE700005B
:101BA00002030405060708090A0B0C0D0E0F10109E
:101BB000010200000010024000127A0000093D00FE
:101BC0002DE9F84305460078354CC00754D0E0694C
:101BD0000026C00008D4E06940F08050E061E06970
:101BE000012600F0805000902E480168C90512D4EB
:101BF0000168804641F480710160FFF701FD0746EE
:101C000005E000BFFFF7FCFCC01B642823D8D8F810
:101C10000000C005F6D5206A10F4407021D0A988D4
:101C200001F4407181421CD0206A1F49012220F436
:101C300040700A6000220A602062C00711D0FFF7DE
:101C4000DFFC074641F2883808E000BFFFF7D8FC08
:101C5000C11B414502D90320BDE8F883206A8007F3
:101C6000F4D5206A696820F44070084320621EB1F0
:101C7000E06920F08050E0612878800705D5606831
:101C8000A96820F44040084360602878C00605D564
:101C90006068E96820F48000084360600020DBE7AA
:101CA0000010024000700040400442422DE9F0471D
:101CB0000F46050061D0434E306800F00700B8427F
:101CC00009D2306820F0070038433060306800F0F7
:101CD0000700B84251D128683B4C810712D5400714
:101CE00003D5606840F4E06060602878000703D5A1
:101CF000606840F4605060606068A96820F0F0009F
:101D0000084360602878C00728D06868012810D090
:101D10002168022810D0890700292EDA616821F095
:101D2000030101436160FFF76BFC804641F2883993
:101D30000DE021688903EFE78901EDE7FFF760FC1B
:101D4000A0EB0801494502D90320BDE8F08760688F
:101D5000696800F00C00B0EB810FEFD1306800F043
:101D60000700B8420BD9306820F0070038433060D4
:101D7000306800F00700B84201D00120E5E728787C
:101D8000400705D56068E96820F4E06008436060BA
:101D90002878000706D56068296920F4605040EA79
:101DA000C100606000F058F86168084AC1F303118F
:101DB000515CC8400649086006480068FFF7FEFD10
:101DC0000020C2E70020024000100240DE9500081B
:101DD000C4000020BC0000200F2202600C4A53689F
:101DE00003F003034360536803F0F0038360536818
:101DF00003F4E063C36052684FF4E06303EAD20285
:101E000002610448006800F00700086070470000A5
:101E1000001002400020024004480549006849685B
:101E2000044AC1F30221515CC8407047C40000203D
:101E300000100240EE950008044805490068496812
:101E4000044AC1F3C221515CC8407047C40000205D
:101E500000100240EE95000812A185B00FC98DE870
:101E60000F0014A0144A006804905168134801F050
:101E70000C03042B10D0082B0ED1C1F38343C903EC
:101E80001DF803000AD5516804AAC1F34041515C12
:101E90000A4A5043B0FBF1F005B070470849484387
:101EA000FAE7000002030405060708090A0B0C0DF7
:101EB0000E0F1010010200000010024000127A0004
:101EC00000093D002DE9F84F040070D02078C04D86
:101ED000C00749D06868C0F38100012807D068684E
:101EE000C0F38100022809D16868C00306D52868BC
:101EF000800339D560680028E7D035E06068B0F528
:101F0000803F0BD010B1B0F5A02F11D0286820F47D
:101F100080302860286820F4802002E0286840F49F
:101F200080302860606890B1FFF76AFB06460AE0DF
:101F3000286840F480202860F0E700BFFFF760FBCE
:101F4000801B642873D828688003F7D50CE0FFF75E
:101F500057FB064605E000BFFFF752FB801B6428D5
:101F6000F0D828688003F7D420789A4E80074FF085
:101F700001094FF0000839D5686810F00C0F07D040
:101F80006868C0F38100022809D16868C00306D4DC
:101F90002868800714D52069012808D110E020693D
:101FA000B0B1C6F80090FFF72BFB074605E00AE149
:101FB000FFF726FBC01B0228C4D828688007F7D586
:101FC0002868616920F0F80040EAC10028600DE04F
:101FD000C6F80080FFF714FB074604E0FFF710FB8C
:101FE000C01B022823D828688007F7D42078000770
:101FF0002CD57948A169D9B1C0F80090FFF700FB52
:10200000074604E0FFF7FCFAC01B02280FD8686AF5
:102010008007F7D571484FF4FA510068B0FBF1F032
:10202000009000BF0098411E0091FAD20EE080E0BF
:10203000C0F80080FFF7E4FA074604E0FFF7E0FA93
:10204000C01B022875D8686A8007F7D4207840073B
:1020500060D5E8690027C00008D4E86940F08050E6
:10206000E861E869012700F0805000905C48016851
:10207000C90513D40168834641F480710160FFF7FC
:10208000BFFA824606E000BFFFF7BAFAA0EB0A00EB
:1020900064284ED8DBF80000C005F5D5E0680128BB
:1020A0000AD008B1052813D0286A20F00100286260
:1020B000286A20F0040002E0286A40F0010028624B
:1020C000E06841F2883B98B1FFF79AFA82460BE04C
:1020D000286A40F004002862EEE700BFFFF790FA9C
:1020E000A0EB0A0159455AD8286A8007F6D50CE0BA
:1020F000FFF786FA824605E0FFF782FAA0EB0A01B5
:1021000059454CD8286A8007F6D41FB1E86920F0F9
:102110008050E861E06988B36968C1F381010229F0
:1021200044D00228C6F8608004D0FFF769FA04465C
:1021300038E034E0FFF764FA074604E0FFF760FA9E
:10214000C01B02282BD828688001F7D4206AB0F57C
:10215000803F05D16868A16820F4003008436860BA
:10216000D4E908010843696821F4741108436860E0
:10217000C6F86090FFF744FA044606E025E000BF89
:10218000FFF73EFA001B022809D828688001F7D51E
:102190001BE000BFFFF734FA001B022802D903201E
:1021A000BDE8F88F28688001F4D40EE00128F7D04C
:1021B0006868226A00F48031914204D1616A00F4B7
:1021C0007010884201D00120EAE70020E8E7000013
:1021D000001002400000424280044242C40000203D
:1021E0000070004070B5040009D0606A002540B15D
:1021F00025616561A56294F8510040B10CE00120B1
:1022000070BD6068B0F5827FF4D0E561F2E784F8D4
:102210005050204600F040F8022084F85100206819
:10222000016821F040010160A088218900F48270DA
:1022300001F404410843A18901F400610843217CB1
:1022400001F002010843217D01F001010843218BC7
:1022500001F400710843217F01F03801084394F82C
:10226000201001F080010843218D01F40051084342
:1022700021680860A069042101EA104021684860D3
:102280002068C16921F40061C1616565012084F89D
:102290005100002070BD000030B585B000240094CE
:1022A00001940294039400681449884223D114488D
:1022B000816941F480518161816901F48051049107
:1022C000816941F00401816180690E4D00F00400D4
:1022D0000490A02000900220019003200390694602
:1022E0002846FFF793F84020CDE9000469462846C8
:1022F0000294FFF78BF805B030BD000000300140BC
:1023000000100240000801402DE9F84F044690F803
:10231000500000270A9E1D4692468B464FF0010949
:1023200001280ED0012084F85000FFF769F980469B
:1023300094F85100616801280CD0B1F5827F07D173
:1023400002E00220BDE8F88FA16809B9042801D095
:102350000227C2E0BBF1000F27D0BAF1000F24D052
:102360001DB394F85100042802D0052084F85100D0
:1023700000206065C4F838A0E587A587C4F830B0B0
:10238000E586A5862064606420680168490603D458
:10239000016841F040010160E068B0F5006F6068DD
:1023A00005D0E8B3012D46D07FE0012795E008B1C4
:1023B000012D39D1206B21680088C860206B801CFA
:1023C0002063E08E401EE0862EE020688168890749
:1023D0000FD5E18E69B1B9F1010F0AD1216B0988DE
:1023E000C160206B801C2063E08E401EE0864FF0B1
:1023F000000920688168C9070CD0E18F51B1C0681D
:10240000A16B0880A06B801CA063E08F401EE0875A
:102410004FF00109FFF7F4F8A0EB0800B04200E02C
:1024200009E001D3701C50D1E08E0028CDD1E08F9F
:102430000028CAD13FE0206B216800780873206B28
:10244000401C2063E08E401EE0862EE020688168FC
:1024500089070FD5E18E69B1B9F1010F0AD1216B5E
:1024600009780173206B401C2063E08E401EE086DB
:102470004FF0000920688168C9070CD0E18F51B185
:10248000C068A16B0870A06B401CA063E08F401E69
:10249000E0874FF00109FFF7B3F8A0EB0800B04266
:1024A00002D3701C01D010E07EB1E08E0028CDD1A7
:1024B000E08F0028CAD142463146204601F05EFE38
:1024C00028B101272020606507E0032705E0A06808
:1024D00018B92068C16880680090012084F8510014
:1024E000002084F8500038462CE770477047000001
:1024F00070B590F83C20012A26D0012480F83C4099
:10250000022280F83D2003685A689D6822F0700618
:102510000A6832435A600D4B02689A4208D0B2F101
:10252000804F05D00A4B9A4202D00A4B9A4204D1FE
:10253000496825F080031943916080F83D400021EF
:1025400080F83C10084670BD022070BD002C014090
:10255000000400400008004010B5040003D094F8C7
:102560003D0010B107E0012010BD002084F83C00C0
:10257000204600F01FF8022084F83D00211D20684D
:1025800002F090F9012084F8460084F83E0084F8B7
:102590003F0084F8400084F8410084F8420084F849
:1025A000430084F8440084F8450084F83D0000208E
:1025B00010BD000008B500680B49884212D10B48D5
:1025C000816941F4006181618069002200F400604A
:1025D000009005211920FFF75DFABDE80840192099
:1025E000FFF74ABA08BD0000002C0140001002406D
:1025F00090F83D10012901D001207047022180F898
:102600003D100168CA6842F00102CA6000680B49C7
:10261000884208D0B0F1804F05D00949884202D0E5
:102620000849884204D1816801F00701062903D0D6
:10263000016841F00101016000207047002C014059
:10264000000400400008004070B5044690F83C00CB
:10265000012817D0012584F83C50022084F83D0061
:102660002068826822F0770222F47F428260086844
:10267000502830D00DDC20284DD005DC98B3102830
:102680003BD148E0022070BD302844D0402834D1EE
:1026900039E0602828D0702806D0B0F5805F2CD0B3
:1026A000B0F5005F29D10AE0CB68D1E901212068AB
:1026B00002F02EF92068816841F0770109E0CB68CB
:1026C000D1E90121206802F023F92068816841F4F2
:1026D0008041816011E0CA684968206802F02AF9E7
:1026E0005021206807E016E0CA684968206802F0B7
:1026F00032F96021206802F015F984F83D5000207D
:1027000084F83C0070BDCA684968206802F012F97C
:1027100040212068EFE7226801461046EBE770474A
:1027200070B50446006801694FF00005C943890788
:1027300015D4C168C943890711D4E91E016101207C
:102740002077206880698007204602D0FFF7E7FFE6
:1027500004E000F098F8204600F096F8257720680D
:102760000169C943490717D4C168C943490713D44C
:102770006FF004010161022020772068806910F465
:10278000407F204602D0FFF7CAFF04E000F07BF84C
:10279000204600F079F8257720680169C9430907C8
:1027A00016D4C168C943090712D46FF0080101614A
:1027B000042020772068C0698007204602D0FFF7F8
:1027C000AEFF04E000F05FF8204600F05DF82577EA
:1027D00020680169C943C90617D4C168C943C9063D
:1027E00013D46FF010010161082020772068C069C0
:1027F00010F4407F204602D0FFF791FF04E000F084
:1028000042F8204600F040F8257720680169C94366
:10281000C90708D1C168C943C90704D1891E01612C
:10282000204600F033F820680169C943090609D43D
:10283000C168C943090605D46FF0800101612046D3
:10284000FFF753FE20680169C943490609D4C168EE
:10285000C943490605D46FF040010161204600F0EC
:102860001FF820680169C94389060BD4C168C943B0
:10287000890607D46FF0200101612046BDE8704051
:10288000FFF734BE70BD7047704700000068034911
:10289000884201D1FFF778B8704700000008004077
:1028A0007047704770470000F8B50268044610682A
:1028B000D168536910F00F0F4FF0000553D003F0AB
:1028C000010601F4907737435FD0C20705D0CA05EF
:1028D00003D5226C42F001022264420705D5DA07D3
:1028E00003D0226C42F002022264820705D5DA0787
:1028F00003D0226C42F004022264020707D501F0E3
:102900002002324303D0226C42F008022264226C7F
:10291000002A34D0800604D5880602D5204602F06D
:10292000DAF820684069216CC0F38010090700D4F0
:1029300030B3204602F0AEF82068416949061BD545
:10294000416921F040014161A06BA8B15849416340
:10295000A06BFEF7EDFB002811D0A06B416B01B01E
:10296000BDE8F040084783060FD58B060DD52046FD
:10297000BDE8F84002F0AFB82046FFF793FFF8BD7E
:102980002046FFF78FFF2564F8BD266B2023012E1C
:1029900052D1C60650D5CE064ED51068506800906C
:1029A000506940062AD5A16B086840680004000CF5
:1029B000EAD0A68D8642E7D9E0858869202818D01C
:1029C000D06820F48070D0602068416921F0010156
:1029D00041612068416921F04001416184F83E3045
:1029E00025632068C16821F01001C160A06BFEF76B
:1029F0007BFBA08DE18D401A81B219E0A08DE18DA5
:102A0000401A81B2E08D0028BED00029BCD0D06829
:102A100020F49070D0602068426922F00102426187
:102A200084F83E3025632068C26822F01002C2603C
:102A30002046FFF736FFF8BD05062BD50D0629D534
:102A400094F83D002128F6D1A068B0F5805F01D14F
:102A50002069B0B1206A411C216221680078486079
:102A6000E08C401E0004000CE084E4D12068C168C2
:102A700021F08001C1602068C16841F04001C1605F
:102A8000F8BD206A0088C0F308005060206A801CEE
:102A90002062E5E74006F3D54806F1D5D168204627
:102AA00021F04001D16084F83D3000F021FBF8BDF9
:102AB0008F49000870B5040004D094F83D0000254B
:102AC00010B106E0012070BD84F83C50204600F0B3
:102AD00023F8242084F83D002068C16821F40051C7
:102AE000C160204602F052F82068016921F490414B
:102AF00001612068416921F02A0141612068C168B3
:102B000041F40051C1602564202084F83D0084F820
:102B10003E00002070BD00002DE9F04385B0002587
:102B20000095019502950395044603685848DFF81F
:102B30005CC102210322071580264FF0100863456F
:102B40004DD1836943F480438361836903F48043F7
:102B50000493836943F0040383618069DFF834914F
:102B600000F0040004900802CDE9000103926946D8
:102B70004846FEF74BFCCDE900756946484602958C
:102B8000FEF744FC454F4448C7E90005C7E9025633
:102B90003D617D61BD613846FD61FEF7BFFB08B157
:102BA000FEF740F8A7637C623C4F3B48443714383B
:102BB000C7E902563D617D61BD61FD61C7E900085D
:102BC0003846FEF7ABFB08B1FEF72CF8676300222E
:102BD000052125207C62FEF75DFF252051E0DFF80E
:102BE000C0C063454FD1C36943F48023C361C36947
:102BF00003F480230493836943F0080383618069AD
:102C0000CDE9007100F00800CDE90320254F6946A9
:102C10003846FEF7FBFBF814CDE900056946384657
:102C20000295FEF7F3FB1D4F1B4888372838C7E98C
:102C30000005C7E902563D617D61BD613846FD6111
:102C4000FEF76CFB08B1FDF7EDFFA7637C62134F45
:102C50001148CC373C38C7E902563D617D61BD6102
:102C6000FD61C7E900083846FEF758FB08B1FDF7DB
:102C7000D9FF67630022052127207C62FEF70AFF47
:102C80002720FEF7F9FE05B0BDE8F08300380140CB
:102C900000100240000801405800024018190020AE
:102CA00000480040000C014090F83E30202B0ED12F
:102CB00059B152B190F83C30012B08D0012380F873
:102CC0003C300023036301F0BDBF012070470220A8
:102CD000704700002DE9F04F91B006462022904940
:102CE00009A8FDF77BFA8F493068002588424ED14C
:102CF0008D488F4C8D49027820880A54401C80B240
:102D00002080084410F8011C0A293BD110F8020C5D
:102D10000D2837D18548FDF7A3FA82B2834985484B
:102D200000F0A6F984A18148FDF788FA48B384A190
:102D30007E48FDF7A5FA83A10020FDF7A1FA8046A1
:102D40007FA10020FDF79CFA7EA10020FDF798FAF4
:102D5000074641467C48FDF765FA7CA17A48FDF7B5
:102D600061FA39467848FDF75DFA79A17648FDF7B2
:102D700059FA754977A004F074FA77A17248FDF703
:102D800076FA2580012268496A48FFF78DFF754968
:102D9000306888427ED17448744A03787448018848
:102DA0005354491C89B20180114411F8012C0A2A9C
:102DB00071D1834611F8020C0D28F9D16D486B4989
:102DC000006804F0D9FA6CA16848FDF737FA6B4B3C
:102DD0004FF00A0208B1012100E00021186804F058
:102DE00057FB67A16148FDF729FA684C08B101203B
:102DF000207067A15D48FDF721FA00B1257066A13A
:102E00005A48FDF71BFA08B10220207064A1574808
:102E1000FDF714FA00286AD054496846FDF727FAEE
:102E200048A16846FDF72CFA5FA10020FDF728FABB
:102E3000FDF748FA82465CA10020FDF721FAFDF774
:102E400041FA81463FA10020FDF71AFAFDF73AFA50
:102E500080463BA10020FDF713FAFDF733FA074641
:102E600037A10020FDF70CFAFDF72CFA064634A135
:102E70000020FDF705FAFDF725FA044631A10020F0
:102E8000FDF7FEF900218E2003F07CF8204603F0C8
:102E9000DBF801E041E03BE0C1B2802003F072F8D2
:102EA000304603F0D1F8C1B2822003F06BF8384607
:102EB00003F0CAF8C1B2842003F064F8404603F07E
:102EC000C3F8C1B2862003F05DF8484603F0BCF8B1
:102ED000C1B2882003F056F8504603F0B5F8C1B2ED
:102EE0008C2003F04FF880218E2003F04BF82FA1A7
:102EF0001E48FDF7A3F948B1134C083C2068FDF7C4
:102F0000AFF982B22B48216800F0B2F8ABF800505C
:102F1000012215492748FFF7C7FE11B0BDE8F08F21
:102F2000C095000800380140710000208C1A002074
:102F30006E000020901800207061737377640000A9
:102F40003A0000005F0000007C000020222C2200DC
:102F5000220D0A002573000041542B43574A41506B
:102F60003D2200000048004070000020281A002088
:102F70006C0000201C0000206C6564004C000020E8
:102F80006C65645F62726561746800000200002015
:102F90006C65645F6F6666006C65645F6F6E0000F1
:102FA00064617465000000002D00000076616C69AA
:102FB00064000000D4180020704700002DE9F84399
:102FC000044690F83D001F4616460D4620284CD179
:102FD000C5B1BEB194F83C00012846D0012084F868
:102FE0003C004FF00008C4F84080212084F83D00E8
:102FF000FEF706FBA6848146E684A068B0F5805FF4
:1030000003D004E00120BDE8F883206928B12E46F2
:103010005FF0000584F83C800EE00026FAE780218E
:10302000204601F047FEA0B9AEB116F8010B2168A9
:103030004860E08C401EE084E08C4B464FF000027C
:1030400000970028EBD14FF04001204601F032FEFE
:1030500030B10320D7E735F8020BC0F30800E6E7EC
:10306000202084F83D000020CDE70220CBE70000BF
:1030700070B5044690F83D00202830D169B362B3A2
:1030800094F83C0001282AD0012084F83C002162F9
:10309000A284E28400252564212084F83D00636B2E
:1030A00010489862636B1048D862636B0F481863CE
:1030B000606B134645632668606B321DFEF75CF952
:1030C00021686FF04000086084F83C502068416936
:1030D00041F080014161002070BD012070BD0220DF
:1030E00070BD00005D4A00088B4A00089F49000837
:1030F00010B5044600680A49884204D101220949F2
:103100000948FFF7D1FD09492068884206D1BDE88A
:103110001040012206490748FFF7C6BD10BD000058
:103120000038014071000020901800200048004045
:1031300070000020D41800207047FEE701684A693B
:10314000D24352050FD46FF480624A61002140F8E7
:10315000301F202242738173026942F0040202612F
:103160000173012070470020704700002DE9F843EB
:10317000044600680D46DDE9089701689846164642
:1031800041F4807101604B4600224FF0011120464E
:10319000009700F065F848B120680068C00502D5C6
:1031A0004FF4007020640320BDE8F883216805F027
:1031B000FE0008613B464A461549204600F084F867
:1031C00088B920684169806900903A46494620469E
:1031D00000F0C5F848B1206C042804D120680168CB
:1031E00041F4007101600120DEE7F5B2B8F1010F92
:1031F00009D02168300A08613A464946204600F065
:10320000AEF80028E7D1206805610020CCE7000077
:103210000200010070B516460D4604460DE020463A
:10322000FFF78CFF08B1012070BD681C05D0FEF7C8
:10323000E7F9801BA84207D835B120684069C04330
:103240004007ECD4002070BD002044F8300F20214E
:103250006173A073216941F0200121612073E2E7CD
:103260002DE9F0471E4690460D460446C1F3074738
:10327000DDF8209008E0701C06D0FEF7C1F9A0EB45
:103280000900B0420FD876B12068012F18D08069AC
:1032900025EA00000004000C14D000214145EAD0CA
:1032A0000020BDE8F087002044F8300F2021617332
:1032B000A073216941F02001216120730120F0E712
:1032C0004069E5E70121E9E72DE9F0479A46914693
:1032D0000E46044600254FF02008C1F3074725E0BD
:1032E00020684069C043400514D42068016841F457
:1032F0000071016021686FF480604861256384F883
:103300003D8084F83E50206C40F00400206484F836
:103310003C501FE0B9F1FF3F08D0FEF771F9A0EB78
:103320000A0149450CD8B9F1000F09D02068012FD6
:1033300013D0806926EA00000004000C0BD0CFE710
:1033400044F8305F84F80D80A573206940F02000B8
:10335000206125730120BDE8F0874069EAE770B578
:1033600016460D4604460DE02046FFF7E7FE08B17D
:10337000012070BD681C05D0FEF742F9801BA842F1
:1033800007D835B120684069C0430006ECD400205E
:1033900070BD002044F8300F20216173A0732169B3
:1033A00041F0200121612073E2E700003EB50024D6
:1033B00011480094019402940E49846001600473E2
:1033C0000475012505614FF460214460C161FDF77A
:1033D000D3FC08B1FDF726FC0420CDE900056946C1
:1033E00002940548FDF744FC002801D0FDF71AFCC3
:1033F0003EBD00000028014060170020154808B5B8
:10340000416941F0010141614069002200F0010081
:10341000009005210C20FEF73DFB0C20FEF72CFB55
:10342000002205210D20FEF735FB0D20FEF724FBC1
:10343000002205210E20FEF72DFB0E20FEF71CFBBF
:10344000002205210F20FEF725FBBDE808400F20D4
:10345000FEF712BB0010024010B504490448FDF706
:10346000E3FB0249491E087010BD0000B1000020B6
:103470009C00002030B5DFB0002059905A90012107
:1034800059A804F062F8654C654D0DF1E00CA0659B
:1034900095E80F008CE80F00002138A803F09AFF90
:1034A0001035206495E80F000DF1F00C103D8CE80C
:1034B0000F0000213CA803F08DFF2035606495E8E3
:1034C0000F000DF5807C203D8CE80F00002140A806
:1034D00003F080FF3035A06495E80F000DF5887C7F
:1034E000303D8CE80F00002144A803F073FF403505
:1034F000E06495E80F000DF5907C403D8CE80F00EE
:10350000002148A803F066FF5035206595E80F00BC
:103510000DF5987C503D8CE80F0000214CA803F07D
:1035200059FF6065D5E91801CDE950015BA85290BB
:10353000002150A803F0AAFE6061D5E91B01CDE986
:1035400053015CA85590002153A803F09FFEA06191
:10355000D5E91E01CDE956015DA85890002156A875
:1035600003F094FEE0611C2205F184016846FCF73B
:1035700035FE0021684604F06DF820621C2205F13A
:10358000A00107A8FCF72AFE002107A804F062F8B2
:1035900060621C2205F1BC010EA8FCF71FFE002191
:1035A0000EA804F057F8A0621C2205F1D80115A856
:1035B000FCF714FE002115A804F04CF8E0621C2270
:1035C00005F1F4011CA8FCF709FE00211CA804F079
:1035D00041F820631C2205F5887123A8FCF7FEFD45
:1035E000002123A804F036F860631C2205F59671CB
:1035F0002AA8FCF7F3FD00212AA804F02BF8A06309
:103600001C2205F5A47131A8FCF7E8FD002131A8C2
:1036100004F020F8E0635FB030BD0000000000203F
:10362000349200082DE9F04786B00025384800950F
:10363000019502950395816941F0100181618169CD
:1036400001F010010491816941F0200181618169DB
:1036500001F020010491816941F0040181618169D7
:1036600001F004010491816941F0080181618069E0
:10367000DFF8A08000F008004FF40054049000220E
:1036800021464046FDF7B7FFDFF88C9041F60F1753
:10369000012239464846FDF7AEFFDFF880A001223F
:1036A00011465046FDF7A7FF002202215046FDF7C4
:1036B000A2FF009401AA0124032682E87000694653
:1036C0004046FDF7A3FE01AA009782E87000694614
:1036D0004846FDF79BFECDE90246009469465046F8
:1036E0000194FDF793FE02208DE8310003906946B6
:1036F0005046FDF78BFE4FF47040CDE9000569465A
:1037000002945046FDF782FE06B0BDE8F087000047
:10371000001002400010014000080140000C014070
:103720000D4810B50B4901600C49416000214FF470
:1037300080428160C0E9031241618161C16101621F
:10374000FDF764FF002803D0BDE81040FDF76ABA1A
:1037500010BD00000054004090170020A08601001A
:10376000094810B507490160032141606421816067
:10377000FEF7D6F8002803D0BDE81040FDF752BA96
:1037800010BD000000300040E4170020104810B5C4
:103790000E4901604FF48271416000218160C16077
:1037A0004FF400720161C0E905121022C0E907213F
:1037B000416281620A21C162FEF714FD002803D034
:1037C000BDE81040FDF72EBA10BD000000300140EA
:1037D000F017002010B586B000241748009401941B
:1037E0000294039404941349059401604721C0E9AD
:1037F00001144CF24F31C0E9031444618461FEF7B7
:10380000ABFE08B1FDF70EFA4FF480500090694608
:103810000948FEF719FF08B1FDF704FA049404A95A
:1038200005480594FEF764FE002801D0FDF7FAF97B
:1038300006B010BD002C0140481800200C4810B5FF
:103840000A4901604FF416514160002181600C2249
:10385000C160C0E904128161C161FFF72BF9002842
:1038600003D0BDE81040FDF7DDB910BD00380140C0
:10387000901800200C4810B50A4901604FF4E1315E
:103880004160002181600C22C160C0E904128161A5
:10389000C161FFF70FF9002803D0BDE81040FDF724
:1038A000C1B910BD00480040D4180020FEE7FEE773
:1038B0002DE9F05F88460021072681460C46DFF897
:1038C0007CA0012305E000BF1AF800201143401C32
:1038D000C0B24045F8D901E0641CE4B203FA04F236
:1038E00018460A42F8D001E0761EF6B200FA06F257
:1038F0000A42F9D032462146484600F0FEF94F46CA
:10390000DFF83CB00EE0254608E000BF0BEBC51029
:10391000C15D402000F014FA6D1CEDB2B542F5D93E
:103920007F1CFFB24745EED9A8EB09010AEB09005D
:10393000BDE8F05F491CFCF76ABC0000381F00209E
:10394000381B00202DE9F84F0024DDE90A8A99464A
:1039500015468B460746DE1D0EE04B46424659464D
:103960003846CDF800A000F01FF86D1E04437F1C00
:1039700008EBD608EDB2FFB2002DEED114B1012054
:10398000BDE8F88F0020FBE71CB5064C02EB4202B5
:1039900004EB4202C03ACDE9002308230622FFF7D8
:1039A000D1FF1CBD989300082DE9FF4F83B01C4642
:1039B000DDF840A00E460746802802D23019402884
:1039C00003D9012007B0BDE8F08F002086E046490A
:1039D000F20801EBC219009219F80750BAF1000F72
:1039E00006D0BAF1010F2CD0BAF1020F45D05FE03A
:1039F00006F0070BCBF108000190A04211D3C4F1EF
:103A00000800FF21A0EB0B028140C8B2D040284043
:103A10002D1A22464146059802F0AEFF00FA0BF03F
:103A20001EE0FF2000FA0BF028402D1A4146019AB3
:103A3000059802F0A1FF00FA0BF02843C5B20198E7
:103A400036E006F007000190C0F108008346A0426E
:103A500009D322464146059802F08EFF019988401D
:103A60002843C5B219E002464146059802F084FF9A
:103A7000019988402843C5B219E006F0070001907B
:103A8000C0F108008346A04209D32246414605986A
:103A900002F072FF019988408543204608E0024603
:103AA0004146059802F068FF0199884085435846D1
:103AB00019F80710A94209D00C4A009B4FF0010CDD
:103AC000D15D0CFA03FC41EA0C01D155211ACCB2AC
:103AD0003118404409F80750CEB2C0B28046002CDD
:103AE0007FF475AF00206DE7381B0020381F0020E1
:103AF0002DE9F04700269946174688460446354684
:103B000011E0601D802804D308F10800002400F0B3
:103B1000FF084B4641462046FFF736FFA41D0543EC
:103B2000761CE4B2B6B2BA5D002AEAD115B1012022
:103B3000BDE8F0870020FBE70023FFF7D9BF0000B6
:103B400070B506460021084600F0D4F800244FF472
:103B500080653146402000F0F3F8641CA4B2AC420A
:103B6000F7D3324629460448FCF74AFBBDE87040CB
:103B700080210248FCF74BBB381B0020381F002077
:103B80000FB42A2210B502A94848FCF727FBBDF85C
:103B90003200464C60850D98E0620E982063092241
:103BA0000FA904F13400FCF719FB9DF8450084F8D7
:103BB0003D009DF8460084F83E001298206413985A
:103BC00060641498A0641598E06416982065AE218E
:103BD000002000F0B5F82021002000F0B1F801210C
:103BE000002000F0ADF88121002000F0A9F8FF21AD
:103BF000002000F0A5F8C821002000F0A1F8A121C4
:103C0000002000F09DF8A821002000F099F83F2145
:103C1000002000F095F8D321002000F091F8002159
:103C2000084600F08DF8D521002000F089F88021A9
:103C3000002000F085F8D821002000F081F805214F
:103C4000002000F07DF8D921002000F079F8F12162
:103C5000002000F075F8DA21002000F071F8122140
:103C6000002000F06DF8DB21002000F069F8302121
:103C7000002000F065F88D21002000F061F814218B
:103C8000002000F05DF8A421002000F059F8A621E2
:103C9000002000F055F80020FFF752FF10BCAF21C4
:103CA00000205DF814EB00F04BB80000B81F0020B6
:103CB00070B500200E4D03E0401CC0B2802802D831
:103CC000295C0029F8D0014601E0491CC9B28029CD
:103CD00002D86A5C002AF8D1491ECCB2802802D8EA
:103CE0002146FFF7E5FD641CE0B28028E6D970BDEF
:103CF000381F00200722AFF3008070B50D46044640
:103D000016462221002000F01BF82946002000F072
:103D100017F83146002000F013F82121002000F0B0
:103D20000FF82146002000F00BF8BDE870407F211D
:103D3000002000F005B801EBC101C9B2FFF7FCBEDD
:103D400003B583B0FF23012204A98DE80E001346BA
:103D5000024678210248FDF71DFD05B000BD0000B8
:103D6000B81F0020044B20B1002202211846FDF7A5
:103D700042BC0122F9E70000000C014070B5054685
:103D800001220021092000F0B9F910F0FF0404D14C
:103D90001021284600F078F804460020FFF7E2FFE3
:103DA0000CB1012070BD002070BD1FB56846FFF743
:103DB000E5FF10B1002004B010BD9DF800100120F7
:103DC000B0EB911F09D19DF808209DF8091000EB78
:103DD0000220084400048009EDE79DF805009DF8E5
:103DE0000A1000F00F0000EBD1109DF809109DF8AB
:103DF000072001F0030100EB41019DF80800800954
:103E000000EB82009DF8062002F0030200EB822006
:103E1000401CC91F8840CEE72DE9F04106461948ED
:103E200015464078062800D049024FF40077012D4E
:103E30004FF001021AD0122000F060F939463046E6
:103E400000F022F86D1E044606F5007615F0FF0519
:103E500001D0002CF2D0012200210C2000F04EF9FC
:103E60000020FFF77FFF2046BDE8F081112000F021
:103E700045F910F0FF04F3D13946304600F004F85C
:103E80000446EDE79800002070B505460C46012079
:103E9000FFF768FFFF2003F099FF06466420FDF757
:103EA000A3FAFE2EF6D103E003F090FF05F8010B14
:103EB000641EA4B24FF0FF00F6D203F087FFFF208C
:103EC00003F084FF002070BD70B50C460546FF204E
:103ED00003F07CFFFF28FAD1204603F077FFFD2C8A
:103EE00018D000244FF40076285D03F06FFF641CA7
:103EF000A4B2B442F8D3FF2003F068FFFF2003F020
:103F000065FFFF2003F062FF00F01F00052801D0CD
:103F1000022070BD002070BD70B506461F481546D2
:103F20000C464078062800D04C02012D14D0012800
:103F300009D001220021372000F0E0F801222946B3
:103F4000172000F0DBF801222146192000F0D6F8F6
:103F500010F0FF040BD01BE001222146182000F0D6
:103F6000CDF810F0FF0413D1FE2130460DE0FC2106
:103F70003046FFF7A9FF6D1E06F5007615F0FF0528
:103F800001D00028F3D0FD210020FFF79DFF04465B
:103F90000020FFF7E7FE204670BD000098000020DB
:103FA0002DE9FC410027DFF84C810097382001976C
:103FB000C8F81C003846FFF7D5FE4F4D002428787E
:103FC00003F004FF641CA4B20A2CF8D3002195224C
:103FD000084600F093F8C0B20128F7D16F7087222D
:103FE0004FF4D571082000F089F8C0B2012873D1D0
:103FF00000246E46287803F0E9FE3055641CE4B2D4
:10400000042CF7D39DF802004FF6FE74012803D16B
:104010009DF80300AA281FD001220021372000F0BC
:104020006DF801220021292000F068F8C0B20128B3
:104030003DD80220687001220021372000F05EF890
:1040400001220021292000F059F810F0FF0F3BD089
:10405000641EA4B2EFD237E04FF080470122002166
:10406000372000F04BF801223946292000F046F8AD
:1040700010F0FF0F02D0641EA4B2EFD2B4B101223F
:1040800000213A2000F03AF880B90024FF2003F024
:104090009DFE3055641CE4B2042CF7D39DF800005B
:1040A000400601D5062000E00420687014E00120DD
:1040B000687001220021104600F020F810F0FF0F78
:1040C00002D0641EA4B2F4D22CB1012251021020FD
:1040D00000F014F800B16F700020FFF743FE0020DD
:1040E000C8F81C00687810B10020BDE8FC810120F0
:1040F000FBE70000F0170020980000202DE9F041B8
:10410000054617460C460020FFF72CFE1420FDF74D
:104110006BF90120FFF726FE164E307803F056FEAD
:10412000FF28FAD145F0400003F050FE200E03F0C6
:104130004DFEC4F3074003F049FEC4F3072003F02B
:1041400045FEE0B203F042FE384603F03FFE0C2D80
:1041500002D1307803F03AFEFF2003F037FE044628
:104160000006F9D4214604A000F007FC2046BDE873
:10417000F0810000980000202564000038B50B464F
:10418000009204460022802100F008F8002804D0A4
:10419000606D40F020006065032038BD2DE9F843D4
:1041A0001E46914688460446089DFDF729FA401BA5
:1041B000351AFDF725FA074625480068C0F3CB30CD
:1041C000684338E0701C37D0FDF71AFAC01BA842CC
:1041D00003D215B1009860B32CE02068416821F04B
:1041E000E00141606068B0F5827F0BD1A068B0F556
:1041F000004F02D0B0F5806F04D12068016821F033
:1042000040010160A06AB0F5005F09D12068016833
:1042100021F4005101602068016841F400510160FF
:10422000012084F85100002084F850000320BDE8EC
:10423000F8830025401E00902068816838EA01005C
:1042400004D000214945BDD10020F0E70121F9E764
:10425000C40000200149C86170470000F017002029
:10426000A6B02A22894911A8FBF7B8FF874C608DB8
:10427000ADF86E00E06A1C90206B1D90092204F1DD
:1042800034011EA8FBF7AAFF94F83D008DF88100C9
:1042900094F83E008DF88200206C2190606C229092
:1042A000A06C2390E06C2490206D2590442215A9E9
:1042B0006846FBF793FF0DF1440C9CE80F00FFF7F5
:1042C0005FFC734C00254FF0FF3847464246684676
:1042D000E16C03F093F8DDE90010102906D1012804
:1042E0000ED06CA205213220FFF725FD3A46684624
:1042F000216D03F083F8DDE90006102802D02BE0E1
:1043000067A2EFE7092E04D2324668A16A4800F09E
:1043100073FDA6F109005A2804D8324667A1664801
:1043200000F06AFDA6F16400B0F5617F04D2324668
:1043300065A1614800F060FDA6F57A7042F2273170
:10434000884204D8324662A15B4800F055FD5A4AC3
:1043500006210A20FFF7EFFCB8463A466846216C72
:1043600003F04CF8DDE901608146227859A15248FA
:10437000009F00F041FD58A200213220FFF7DBFC36
:104380004D4A00215420FFF7D6FC55A200216C2095
:10439000FFF7D1FC53A202213220FFF7CCFC627858
:1043A0004CA1454800F028FD434A02215420FFF764
:1043B000C2FC102F64D12A2E02D02B2E06D05FE033
:1043C0004A463146384602F05FFE59E0206B03F062
:1043D000DDFF4FF6FF730B2244A14748FEF7EEFDC9
:1043E00046A002F03EFF4FF47A76304602F042FFDC
:1043F00042A002F036FF304602F03CFF3FA002F040
:1044000030FF304602F036FF0020FFF799FB3DA059
:1044100002F027FF46460A226846E16902F064FF7F
:104420000098202811D13AA13A48FBF729FF6D1CCA
:104430000246E9B220610D460020FFF77CFC062D04
:1044400003D100252846FFF77BFB32466846216CE6
:1044500002F0D4FFDDE90010102901D12B2802D091
:10446000FFF726FCD7E7206B03F01CFF08492AA0C2
:104470005C3102F0F6FE0020FFF762FBFFF718FC4C
:10448000FFF716FC642002F0F5FE1EE790170020EF
:104490000000002073656E64696E672E2E2E00008A
:1044A0007375636365737321212100004144433AAE
:1044B00020202025640000006A0100204144433A86
:1044C00020202564000000004144433A2025640078
:1044D0004144433A2564000074656D703D0000005E
:1044E0002020000068756D693D00000041542B528A
:1044F0004F4C453D320D0A009018002041540D0AE2
:104500000000000041542B43574A41503F0D0A0020
:104510000D0A0000281A0020257300000122154E04
:10452000550329463046FDF766F8134C0027A0785E
:10453000022804D1012229463046FDF75CF8A07814
:10454000012810D1A760A06802F048FBA068C01C39
:10455000A0606428F7DB04E002F040FBA068C01E06
:10456000A0600028F8DCA0780028E0D1642002F0E8
:1045700035FBDCE70010014000000020074C4FF045
:10458000FF3500BF02F0EAFA0146E0602A46206CDF
:1045900002F07EFF642002F06DFEF3E700000020D1
:1045A00003F016FDFCF78EFA03F032FD0C4F0D4DB3
:1045B00000264FF4FA74204602F05CFE03F008FD7A
:1045C00009493E80481EFCF7B8FA03F021FD28682F
:1045D000C16841F02001C160204602F04BFEEAE7CD
:1045E0006C000020D4180020010000200EB53248D5
:1045F00003F0AEFF314C4FF0FF374FF4FA763A46F6
:104600006846216D02F0FAFEDDE90005102827D189
:104610002A462BA1344800F0EFFB3348FBF720FE7D
:10462000024632A1304800F0E7FB2F48FBF718FEA6
:1046300082B22D492048FEF71BFD304602F01AFEDB
:104640002A461FA1284800F0D7FB2748FBF708FEA1
:1046500082B225491848FEF70BFD304602F00AFEEB
:104660002378627825A1204800F0C6FB6068FBF73C
:10467000F7FD82B210486168FEF7FAFC304602F09E
:10468000F9FDC8226846616902F02EFEDDE90001ED
:10469000202802D11448FBF7EAFD1348FBF7E0FDA0
:1046A00082B211490448FEF7E3FC304602F0E2FD15
:1046B000012002F0DFFDA2E7D41800200000002056
:1046C0007B22646576696365223A2273746D3332A6
:1046D0006631303363387436222C22414443223A07
:1046E00025642C7D0A0000003801002041542B4332
:1046F000495053454E443D25640D0A007B226465B4
:1047000076696365223A2273746D333266313033D1
:1047100063387436222C2268756D69223A25642C20
:104720002274656D70223A25642C7D0A0000000019
:104730000348FDF722F9012002F09CFDF8E7000094
:10474000E417002001F054FB012002F093FDF9E78B
:104750008CB06C4600261F48FCF766FC0A211D48F9
:10476000FCF7C4FB1B48FCF701FB800506D5194884
:10477000FCF7FEFA24F81600284485B2761CF6B23F
:10478000162EE8D3BDF800100023084634F8132095
:104790008A4200D31146824200D810465B1CDBB22D
:1047A000162BF3D3691A081A142190FBF1F040F686
:1047B000E4414843C11700EB1150C0F30F310648E4
:1047C0004FF0FF32006D02F063FE0025012002F081
:1047D00051FDBFE7601700200000002010B55020F9
:1047E00080F31188BFF34F8FBFF36F8F04F08CFB02
:1047F00018B104494FF080500860002080F3118800
:1048000010BD000004ED00E030B593B028216846EB
:10481000FBF7FDFC14210AA8FBF7F9FC00250F9516
:104820000920012110950090119512954FF48030C8
:1048300004910691CDE901050224CDE907404FF42A
:10484000E01009906846FDF73DFB08B172B6FEE73F
:104850000AA90F2081E831004FF48060CDE90D05F1
:1048600002210AA8FDF722FA08B172B6FEE74FF45A
:10487000004011900F940FA8FDF7A2F9002801D075
:1048800072B6FEE713B030BD704700000148FDF777
:1048900047BF0000481800200148FDF741BF000055
:1048A000F01A0020F0B50268164B174C174D4FF068
:1048B0008047984205D0B84203D0A04201D0A84218
:1048C00003D122F070064A683243984205D0B842BC
:1048D00003D0A04201D0A84203D122F44074CA6898
:1048E00022434C6922F08002224302608A68C2623D
:1048F0000A688262984201D109690163012141611C
:10490000F0BD0000002C0140000400400008004001
:1049100010B5846842EA032224F47F440A43224308
:10492000826010BD826822F070020A4342F00701E3
:104930008160704710B5036A046A24F001040462C0
:10494000846924F0F00444EA021423F00A020A43C2
:104950008461026210BD10B5036A23F01003036284
:104960008369046A23F4704343EA023224F0A0030B
:1049700043EA01118261016210BD0FB410B503A9B1
:10498000029803F0CDFD10BC00205DF814FB10B5BB
:10499000406A0021C185C184FDF784FF10BD70B558
:1049A000446A2068406994F83D10C0F3C0100025A7
:1049B000212904D118B1E584204600F083F820684D
:1049C000406994F83E10C0F38010222904D118B138
:1049D000E585204600F05EF8206C40F01000206471
:1049E0002046FDF75FFF70BD10B50146406A0968BB
:1049F000096889061BD40021C1850168CA6822F4B0
:104A00008072CA6001684A6922F001024A61016845
:104A10004A6922F040024A61202180F83E10016B71
:104A2000012904D10168CA6822F01002CA60016B32
:104A3000012902D0FEF74EF910BD818DFDF731FF3F
:104A400010BD10B5406A016B012902D0FEF7B4FA1F
:104A500010BD818D4908FDF724FF10BD10B501463A
:104A6000406A0968096889060CD40021C18401687C
:104A70004A6922F080024A610068C16841F0400141
:104A8000C16010BDFEF734FB10BD10B5406AFEF7E3
:104A900053FB10BD0168CA6822F49072CA600168B5
:104AA0004A6922F001024A61016B012904D10168BF
:104AB000CA6822F01002CA60202180F83E1000214E
:104AC000016370470168CA6822F0C002CA602021F1
:104AD00080F83D10704708B590F83E10222901D0AB
:104AE000022008BD82684FF480539A4201D10169C7
:104AF00021B1816A9A421BD04AB10AE00268816AF8
:104B00005268C2F308020A80816A891C08E00269BF
:104B100072B10268526802F07F020A70816A491C11
:104B20008162C18D491E0904090CC18503D019E0B9
:104B300002685268F1E70168CA6822F02002CA6080
:104B40000168CA6822F48072CA6001684A6922F06A
:104B500001024A61202180F83E10016B012903D037
:104B6000FEF7B8F8002008BD002101630168CA689B
:104B700022F01002CA6001680A68D20602D50A68EB
:104B800049680091818DFDF78CFEEBE770B5044616
:104B900000680169E26821F4405111430161216913
:104BA000A0680843616908432168CA6841F20C6340
:104BB0009A430243CA6020684169A26921F44071A6
:104BC000114341611E492068884202D1FDF734F942
:104BD00001E0FDF721F900EBC00101EB0012606874
:104BE00064218000B2FBF0F3B3FBF1F36FF0180621
:104BF0007343B2FBF0F5B2FBF0F605EB830532230D
:104C000003EB0515B5FBF1F5B6FBF1F605F0F00584
:104C100005EB0615B2FBF0F6B2FBF0F0B0FBF1F0DD
:104C20006FF01802504306EB800003EB0010B0FB5E
:104C3000F1F0216800F00F002844886070BD00008A
:104C40000038014038B5816282850025134604464C
:104C50000564222084F83E00A26B13489062A26B88
:104C60001248D062A26B12481063A06B0A464563DB
:104C70002168A06B091DFCF77FFB20680168416873
:104C8000009184F83C50C16841F48071C160206893
:104C9000416941F0010141612068416941F04001F1
:104CA0004161002038BD0000E9490008434A00087E
:104CB0009F4900082DE9F041984617460E460446E4
:104CC000069D1DE0681C1BD02DB1FCF799FCA0EBE4
:104CD0000800A84214D92068C16821F4D071C160CD
:104CE0002068416921F001014161202084F83D00E4
:104CF00084F83E00002084F83C000320BDE8F081E9
:104D00002068006836EA000004D00020B842D9D0FC
:104D10000020F3E70120F9E70148FDF7C5BD0000D9
:104D2000901800200148FDF7BFBD0000D4180020F6
:104D300010B5FFF735F9002809D03820FFF78AFAB7
:104D4000FF2003F043F80020FFF784FA012010BD94
:104D500010B5144641B101291DD0022914D00329F0
:104D600015D00424204610BD0120FEF7FBFF1420BF
:104D7000FCF73AFBFF2003F029F8FF28F7D10024C5
:104D80002046FEF7EFFFEDE74FF4007000E008204B
:104D900010800024E6E7FFF708F82060F9E770B517
:104DA00014460D460BB148B901E0042070BDDAB2DB
:104DB00021462846FFF730F80028F7D0012070BDC3
:104DC000002804D0012803D0022801D00120704718
:104DD0000020704770B514460D460BB148B901E08C
:104DE000042070BDDAB221462846FFF795F8002866
:104DF000F7D0012070BDFEE70FB4084B10B504A931
:104E000002AA039800F004F9044602A9002000F069
:104E100096FC204610BC5DF814FB00003F570008CC
:104E200037B514460846064B6A46214600F0F0F8AE
:104E300004466946002000F082FC20463EBD00008A
:104E40003F5700080907090E002804DB00F1E020A5
:104E500080F80014704700F00F0000F1E02080F8A7
:104E6000141D7047004870473401002002E008C854
:104E7000121F08C1002AFAD170477047002001E0D4
:104E800001C1121F002AFBD1704700002DE9FF5F0E
:104E900082B00021DDE90430020DDDF840B00343AB
:104EA00018D044F61050A2F2FF3242431514119864
:104EB00001281FD0A5EB0B00401C5FEA000A4FF051
:104EC00000064E4FDFF83891B046504615D5CAF16E
:104ED000000413E0119801244AA3012801D16FEACC
:104EE0000B010298119AC0E90031C0E9024206B0F4
:104EF000BDE8F09FCBF10000DFE704460021404A07
:104F0000491842EB0450CDE9001012E0E00707D049
:104F100032463B4640464946FBF7D3FB804689462E
:104F200032463B4610461946FBF7CBFB06460F467A
:104F30006410002CEAD1DDE90401DDE90023BAF1B7
:104F4000000F06DAFBF7BDFB42464B46FBF7B9FB09
:104F500005E0FBF7C4F942464B46FBF7C0F90446AF
:104F60000E460022284BFBF737FC03D84FF0FF30EA
:104F7000014607E00022254B20463146FBF7FAFAAE
:104F8000FBF711FC102409E0002C0ADB0A220023A5
:104F9000FBF72AFA039B30321A55641E50EA0102CD
:104FA000F2D1641C039AC4F111031444119A012A2A
:104FB00003D0012208430DD10AE0084304D00020A9
:104FC0004FF0110B119072E7A3EB0B056D1E0DE076
:104FD0005B4504DD4FF0000205F1010504E003DA52
:104FE0004FF00002A5F10105002AECD002981199BA
:104FF000C0E90231C0E9004579E700000000144033
:105000000000F03F300000000000F0430000E03FEF
:105010002DE9FF4F95B09B468946064600250FE2D5
:10502000252877D100242746F84A0121059400E07D
:10503000044316F8013F203B01FA03F01042F7D178
:1050400030782A2811D06FF02F033078A0F1300289
:10505000092A16D8059A44F0020402EB820203EBF7
:1050600042021044761C0590EFE759F8042B059294
:10507000002A03DA504244F40054059044F002043C
:10508000761C30782E2816D116F8010F44F004044F
:105090002A280DD06FF02F023078A0F13003092BB1
:1050A00009D807EB870302EB4303C718761CF3E725
:1050B00059F8047B761C30786C280FD006DC4C281D
:1050C00017D068280DD06A2814D104E0742810D0B5
:1050D0007A280FD10DE044F400140AE044F480145F
:1050E00001E044F440147278824202D104F5801445
:1050F000761C761C307866280BD013DC582877D0C5
:1051000009DC002875D04528F6D04628F4D0472879
:105110001AD19DE118E0632835D0642879D065283C
:1051200012D195E1702873D008DC6728F1D0692886
:105130006FD06E280DD06F2806D1B5E073282CD023
:10514000752875D0782874D05A46179990476D1CE9
:1051500075E1C4F30250022809D003280DD0D9F814
:10516000001004280DD00D6009F1040967E1D9F899
:105170000010EA17C1E90052F6E7D9F800100D80D7
:10518000F2E70D70F0E719F8041B8DF8001000200D
:105190008DF80100EA46012003E059F804AB4FF016
:1051A000FF3061074FF0000102D40DE008F101016A
:1051B0008846B9420FDA8045F8DB1AF80810002952
:1051C000F4D108E008F1010188468142FADB1AF8BF
:1051D00008100029F6D105985B46A0EB0807214688
:1051E0003846179A00F094FA284400EB080507E0C7
:1051F0004DE029E10DE01AF8010B5A461799904746
:10520000B8F10108F7D25B4621463846179A13E1F8
:1052100042E00A220092C4F302524FF0000A022A2E
:1052200008D059F804CB032A4FEAEC710AD00DE0FC
:1052300029E02AE009F1070121F00702F2E802C1A2
:10524000914609E00FFA8CFC4FEAEC71042A03D175
:105250004FFA8CFC4FEAEC71002907DA0A4600216C
:10526000DCF1000C61EB02012D2202E0220504D5E5
:105270002B228DF80420012203E0E20701D0202236
:10528000F7E7904659E00A2102E010220DE01021D4
:105290004FF0000A00910BE010224FF0000A44F09A
:1052A00004040827009203E008224FF0000A00924D
:1052B000C4F30252022A05D059F804CB0021032A74
:1052C00008D009E009F1070121F00702F2E802C164
:1052D000914605E01FFA8CFC042A01D10CF0FF0C6A
:1052E0004FF00008220728D5702806D0009B83F0D5
:1052F000100353EA0A0305D00EE040228DF8042083
:10530000012208E05CEA010206D030228DF8042078
:105310008DF8050002229046009B83F0080353EAB3
:105320000A030AD15CEA010201D1620705D53022E5
:105330008DF804204FF001087F1E582804D034A0B7
:1053400003900EA802900DE036A0F9E753466046A0
:10535000009AFBF749F884460398825C0298401E45
:10536000029002705CEA0100F0D1029806A9081AC6
:1053700000F1200A600702D524F4803400E0012700
:10538000574502DDA7EB0A0000E0002000EB0A0110
:10539000009005984144401A0590E00306D45B460E
:1053A0002146179A059800F0B3F90544002706E056
:1053B00001A85A46C05D179990476D1C7F1C474550
:1053C000F6DBE0030CD55B462146179A059800F002
:1053D0009FF9054404E030205A46179990476D1C08
:1053E0000099481E00900029F5DC08E00298029917
:1053F0005A460078491C0291179990476D1CBAF1E2
:105400000001AAF1010AF1DC65E1000009280100B0
:10541000303132333435363738396162636465662A
:1054200000000000303132333435363738394142EC
:10543000434445460000000000F058F90544761C3E
:10544000307800287FF4ECAD19B02846BDE8F08F25
:10545000620700D4062709F1070222F0070CFCE8D6
:105460000223E14603F000485FEA080C02D00FF285
:10547000702C0DE05FEA045C02D50FF2682C07E0A7
:105480005FEAC47C02D00FF2602C01E0AFF2700C36
:105490004FF0FF3823F00043CDF850C065280CD002
:1054A00006DC452809D046281DD047283DD13DE0DF
:1054B000662818D067287ED138E00021112F01DB43
:1054C000112000E0781CCDE9000106A90EA8FFF725
:1054D000DDFCDDE90F010E9A03910021009207F136
:1054E000010A04914DE04FF000400097CDE9011012
:1054F00006A90EA8FFF7CAFCDDE90F0203920E9B76
:1055000011990022DDF80CA00093049211B9791CC6
:1055100000EB010AB7EB0A0004D4C0F1FF3007F139
:10552000010A0490AAEB0700019044E0012F00DA81
:1055300001270021112F01DD112000E03846CDE9BF
:10554000000106A90EA8FFF7A1FCDDE90F010E9AE4
:105550000391002104910092BA4621070CD40399CB
:10556000514500DA8A46BAF1010F05DD009AAAF129
:105570000101515C302908D0B84202DA10F1040F61
:1055800006DA0121CDE9011015E0AAF10101E9E7F0
:10559000002805DC049901440491AAEB000102E013
:1055A000411C514500DD8A460499401A401C019077
:1055B0004FF000400290200704D40198504501DBD1
:1055C000CDF8048000208DF84F0002980DF14F07B0
:1055D000B0F1004F25D02B200E9002984FF002081A
:1055E00000280CDA404202902D200E9007E00A219C
:1055F0000298FAF7E3FE3031029007F8011DB8F186
:105600000001A8F10108F2DC02980028EFD1791E10
:105610000E980870307800F0200040F0450007F840
:10562000020D12A8C01B00F107081498007800B101
:10563000012000EB0A01019801EBE071059841445B
:10564000401A401E0590E00306D45B462146179A97
:10565000059800F05DF805441498007818B15A4692
:10566000179990476D1CE00324D55B462146179A95
:10567000059800F04DF805441CE00498002807DB6D
:10568000DDE90301884203DD0098405C179901E0E1
:10569000179930205A469047049805F10105401C9F
:1056A00004900198401E019004D12E205A4617996B
:1056B00090476D1CBAF10001AAF1010ADDDC05E09A
:1056C00017F8010B5A46179990476D1CB8F1000165
:1056D000A8F10108F4DC5B462146179A0598ABE671
:1056E0002D0000002B000000200000002DE9F041FB
:1056F000044600251E461746880404D405E03946B2
:105700002020B0476D1C641EF9D52846BDE8F08105
:105710002DE9F041044600251E469046C80301D5F8
:10572000302700E02027880404D505E041463846AC
:10573000B0476D1C641EF9D52846BDE8F0810A68A3
:10574000531C0B601070704710B50446002084F89D
:105750000402401EC4F83002204601F067FD08B183
:10576000032010BDB4F8FE01A0F52A41553901D03F
:10577000022010BD94F83600B4F8371040EA012139
:105780000848B0EB012F08D094F85210B4F8532019
:1057900041EA0221B0EB012F01D1002010BD012010
:1057A00010BD00000046415406490020086006482C
:1057B0000068C0F303300F2801D00120704700209B
:1057C000704700000C080140080C0140F0B50022B1
:1057D000184B144602EB420653F8265085B1D0F818
:1057E0000072BD420DD103EB8605D0F808626F68E8
:1057F000B74206D12D89B0F80662B54204D000E068
:105800000124521C022AE5D3022A01D079B904E00E
:105810005CB9022909D01220F0BD02EB420003EB73
:1058200080004089B0F5807F01D00020F0BD1020BD
:10583000F0BD00000C20002030B50021064A0C46C7
:1058400001EB410352F82350854201D142F8234035
:10585000491C0229F4D330BD0C200020D0F82422AA
:10586000D0F80002490A90F80202B1FBF0F0121DD4
:1058700002CA19B1884203D3401AF8E700207047E2
:10588000116808447047D0F81822891E921E8A4277
:1058900001D800207047D0F82C2290F8020201FBBA
:1058A000002070472DE9F0410F00054606D001F0B9
:1058B0007EF802280BD20120BDE8F081D5F81062F5
:1058C0001EB1D5F81802B04208D8012606E0411CE6
:1058D000F2D0D5F818128142EED83E463446D5F8BB
:1058E0001802641CA04202D80224022E0AD32146C8
:1058F000284601F05CF838B1411CDDD00128DBD02E
:10590000B442ECD10020D7E76FF070422146284620
:1059100002F01DF930B957B122463946284602F047
:1059200016F920B1012812D001242046C4E7C5F899
:105930001042D5F81402411CF7D0401EC5F81402DD
:1059400095F8050240F0010085F80502EDE74FF0FB
:10595000FF34EAE72DE9F04789460C6800E0641C53
:1059600021782F29FBD05C29F9D0D0F818520B22CE
:105970002021284601F07DF9002001460B4608262B
:10598000E25C5B1C202A35D92F2A33D05C2A31D027
:105990002E2A01D0B04208D3082E38D12E2A36D173
:1059A00008200B268906090EEAE7802A05D3244F32
:1059B00041F003013A4412F8802C22A700E07F1C3A
:1059C00097F800C0BCF1000F02D09445F7D11EE05B
:1059D000A2F14107192F02D841F0020107E0A2F11C
:1059E0006107192F03D8203A41F00101D2B22A549D
:1059F000401CC5E71C44C9F80040202A01D80422F5
:105A000000E0002218B12878E52803D004E0062041
:105A1000BDE8F08705202870082E01D18806010E08
:105A200001F00300012801D142F01002C1F381000E
:105A3000012801D142F00802EA720020E8E70000E4
:105A4000F6950008222A2B2C3A3B3C3D3E3F5B5DFD
:105A50007C7F0000401E022815D20C4B00EB400258
:105A600003EB82014889B0F5807F05D008B1401E64
:105A700080B2488110B104E00020FAE7002043F82A
:105A80002200002070470220704700000C200020F8
:105A9000F0B54FF461764FF0E0220E4F17E0334639
:105AA000984200D803469469594201EBC10114EBB6
:105AB000C10505D49169A14208DAA942FADA05E0E4
:105AC0003D449169A142FCDDA942FADCC01A0028DC
:105AD000E5D1F0BD401901002DE9F041B0F80662B2
